{
  "_format": "hh-sol-artifact-1",
  "contractName": "PostSevaComplaints",
  "sourceName": "contracts/PostSevaComplaints.sol",
  "abi": [
    {
      "inputs": [],
      "stateMutability": "nonpayable",
      "type": "constructor"
    },
    {
      "anonymous": false,
      "inputs": [
        {
          "indexed": false,
          "internalType": "string",
          "name": "complaintId",
          "type": "string"
        },
        {
          "indexed": false,
          "internalType": "string",
          "name": "userId",
          "type": "string"
        },
        {
          "indexed": false,
          "internalType": "string",
          "name": "description",
          "type": "string"
        },
        {
          "indexed": false,
          "internalType": "string",
          "name": "postOfficeCode",
          "type": "string"
        }
      ],
      "name": "ComplaintFiled",
      "type": "event"
    },
    {
      "anonymous": false,
      "inputs": [
        {
          "indexed": false,
          "internalType": "string",
          "name": "complaintId",
          "type": "string"
        },
        {
          "indexed": false,
          "internalType": "enum PostSevaComplaints.Status",
          "name": "status",
          "type": "uint8"
        }
      ],
      "name": "ComplaintUpdated",
      "type": "event"
    },
    {
      "anonymous": false,
      "inputs": [
        {
          "indexed": false,
          "internalType": "string",
          "name": "complaintId",
          "type": "string"
        },
        {
          "indexed": false,
          "internalType": "string",
          "name": "feedbackAuthor",
          "type": "string"
        },
        {
          "indexed": false,
          "internalType": "string",
          "name": "feedback",
          "type": "string"
        }
      ],
      "name": "FeedbackAdded",
      "type": "event"
    },
    {
      "anonymous": false,
      "inputs": [
        {
          "indexed": false,
          "internalType": "string",
          "name": "complaintId",
          "type": "string"
        },
        {
          "indexed": false,
          "internalType": "string",
          "name": "staff",
          "type": "string"
        }
      ],
      "name": "StaffAssigned",
      "type": "event"
    },
    {
      "inputs": [
        {
          "internalType": "string",
          "name": "complaintId",
          "type": "string"
        },
        {
          "internalType": "string",
          "name": "_feedbackAuthor",
          "type": "string"
        },
        {
          "internalType": "string",
          "name": "_feedback",
          "type": "string"
        }
      ],
      "name": "addFeedback",
      "outputs": [],
      "stateMutability": "nonpayable",
      "type": "function"
    },
    {
      "inputs": [
        {
          "internalType": "string",
          "name": "complaintId",
          "type": "string"
        },
        {
          "internalType": "string",
          "name": "_staff",
          "type": "string"
        }
      ],
      "name": "assignStaff",
      "outputs": [],
      "stateMutability": "nonpayable",
      "type": "function"
    },
    {
      "inputs": [
        {
          "internalType": "string",
          "name": "complaintId",
          "type": "string"
        },
        {
          "internalType": "string",
          "name": "_userId",
          "type": "string"
        },
        {
          "internalType": "string",
          "name": "_description",
          "type": "string"
        },
        {
          "internalType": "string",
          "name": "_postOfficeCode",
          "type": "string"
        }
      ],
      "name": "fileComplaint",
      "outputs": [],
      "stateMutability": "nonpayable",
      "type": "function"
    },
    {
      "inputs": [
        {
          "internalType": "string",
          "name": "complaintId",
          "type": "string"
        }
      ],
      "name": "getComplaint",
      "outputs": [
        {
          "internalType": "string",
          "name": "userId",
          "type": "string"
        },
        {
          "internalType": "string",
          "name": "description",
          "type": "string"
        },
        {
          "internalType": "enum PostSevaComplaints.Status",
          "name": "status",
          "type": "uint8"
        },
        {
          "internalType": "string",
          "name": "staff",
          "type": "string"
        },
        {
          "internalType": "string",
          "name": "postOfficeCode",
          "type": "string"
        },
        {
          "internalType": "string",
          "name": "feedbackAuthor",
          "type": "string"
        },
        {
          "internalType": "string",
          "name": "feedback",
          "type": "string"
        }
      ],
      "stateMutability": "view",
      "type": "function"
    },
    {
      "inputs": [],
      "name": "postOfficeAdmin",
      "outputs": [
        {
          "internalType": "address",
          "name": "",
          "type": "address"
        }
      ],
      "stateMutability": "view",
      "type": "function"
    },
    {
      "inputs": [
        {
          "internalType": "string",
          "name": "complaintId",
          "type": "string"
        },
        {
          "internalType": "enum PostSevaComplaints.Status",
          "name": "_status",
          "type": "uint8"
        }
      ],
      "name": "updateComplaintStatus",
      "outputs": [],
      "stateMutability": "nonpayable",
      "type": "function"
    }
  ],
  "bytecode": "0x6080604052348015600f57600080fd5b5033600160006101000a81548173ffffffffffffffffffffffffffffffffffffffff021916908373ffffffffffffffffffffffffffffffffffffffff160217905550611dae806100606000396000f3fe608060405234801561001057600080fd5b50600436106100625760003560e01c806305fd4b8114610067578063420e1e1d1461009d57806356f0b240146100b9578063a3564166146100d5578063b944bd0f146100f1578063fb96ac841461010f575b600080fd5b610081600480360381019061007c9190611020565b61012b565b604051610094979695949392919061115f565b60405180910390f35b6100b760048036038101906100b291906111f8565b6105fb565b005b6100d360048036038101906100ce91906112cf565b610905565b005b6100ef60048036038101906100ea9190611347565b610afa565b005b6100f9610cd5565b604051610106919061142f565b60405180910390f35b6101296004803603810190610124919061146f565b610cfb565b005b606080600060608060608087600081511161017b576040517f08c379a000000000000000000000000000000000000000000000000000000000815260040161017290611517565b60405180910390fd5b6000808260405161018c9190611573565b908152602001604051809103902060000180546101a8906115b9565b9050116101ea576040517f08c379a00000000000000000000000000000000000000000000000000000000081526004016101e190611636565b60405180910390fd5b6000808a6040516101fb9190611573565b90815260200160405180910390206040518060e0016040529081600082018054610224906115b9565b80601f0160208091040260200160405190810160405280929190818152602001828054610250906115b9565b801561029d5780601f106102725761010080835404028352916020019161029d565b820191906000526020600020905b81548152906001019060200180831161028057829003601f168201915b505050505081526020016001820180546102b6906115b9565b80601f01602080910402602001604051908101604052809291908181526020018280546102e2906115b9565b801561032f5780601f106103045761010080835404028352916020019161032f565b820191906000526020600020905b81548152906001019060200180831161031257829003601f168201915b505050505081526020016002820160009054906101000a900460ff16600581111561035d5761035c6110e8565b5b600581111561036f5761036e6110e8565b5b8152602001600382018054610383906115b9565b80601f01602080910402602001604051908101604052809291908181526020018280546103af906115b9565b80156103fc5780601f106103d1576101008083540402835291602001916103fc565b820191906000526020600020905b8154815290600101906020018083116103df57829003601f168201915b50505050508152602001600482018054610415906115b9565b80601f0160208091040260200160405190810160405280929190818152602001828054610441906115b9565b801561048e5780601f106104635761010080835404028352916020019161048e565b820191906000526020600020905b81548152906001019060200180831161047157829003601f168201915b505050505081526020016005820180546104a7906115b9565b80601f01602080910402602001604051908101604052809291908181526020018280546104d3906115b9565b80156105205780601f106104f557610100808354040283529160200191610520565b820191906000526020600020905b81548152906001019060200180831161050357829003601f168201915b50505050508152602001600682018054610539906115b9565b80601f0160208091040260200160405190810160405280929190818152602001828054610565906115b9565b80156105b25780601f10610587576101008083540402835291602001916105b2565b820191906000526020600020905b81548152906001019060200180831161059557829003601f168201915b5050505050815250509050806000015181602001518260400151836060015184608001518560a001518660c0015198509850985098509850985098505050919395979092949650565b600084511161063f576040517f08c379a000000000000000000000000000000000000000000000000000000000815260040161063690611517565b60405180910390fd5b6000835111610683576040517f08c379a000000000000000000000000000000000000000000000000000000000815260040161067a906116a2565b60405180910390fd5b60008251116106c7576040517f08c379a00000000000000000000000000000000000000000000000000000000081526004016106be9061170e565b60405180910390fd5b600081511161070b576040517f08c379a00000000000000000000000000000000000000000000000000000000081526004016107029061177a565b60405180910390fd5b6000808560405161071c9190611573565b90815260200160405180910390206000018054610738906115b9565b90501461077a576040517f08c379a0000000000000000000000000000000000000000000000000000000008152600401610771906117e6565b60405180910390fd5b6040518060e00160405280848152602001838152602001600360058111156107a5576107a46110e8565b5b8152602001604051806020016040528060008152508152602001828152602001604051806020016040528060008152508152602001604051806020016040528060008152508152506000856040516107fd9190611573565b9081526020016040518091039020600082015181600001908161082091906119bc565b50602082015181600101908161083691906119bc565b5060408201518160020160006101000a81548160ff02191690836005811115610862576108616110e8565b5b0217905550606082015181600301908161087c91906119bc565b50608082015181600401908161089291906119bc565b5060a08201518160050190816108a891906119bc565b5060c08201518160060190816108be91906119bc565b509050507f94587d99c70a80450bf4548788c852611ce5dc33f4013e7c97488a87817c6f30848484846040516108f79493929190611a8e565b60405180910390a150505050565b600160009054906101000a900473ffffffffffffffffffffffffffffffffffffffff1673ffffffffffffffffffffffffffffffffffffffff163373ffffffffffffffffffffffffffffffffffffffff1614610995576040517f08c379a000000000000000000000000000000000000000000000000000000000815260040161098c90611b61565b60405180910390fd5b8160008151116109da576040517f08c379a00000000000000000000000000000000000000000000000000000000081526004016109d190611517565b60405180910390fd5b600080826040516109eb9190611573565b90815260200160405180910390206000018054610a07906115b9565b905011610a49576040517f08c379a0000000000000000000000000000000000000000000000000000000008152600401610a4090611636565b60405180910390fd5b6000825111610a8d576040517f08c379a0000000000000000000000000000000000000000000000000000000008152600401610a8490611bcd565b60405180910390fd5b81600084604051610a9e9190611573565b90815260200160405180910390206003019081610abb91906119bc565b507fd3cded853adebcd10298c5a54f591ac0a0666748d5be2e70705a6d2d6c4a96ed8383604051610aed929190611bed565b60405180910390a1505050565b826000815111610b3f576040517f08c379a0000000000000000000000000000000000000000000000000000000008152600401610b3690611517565b60405180910390fd5b60008082604051610b509190611573565b90815260200160405180910390206000018054610b6c906115b9565b905011610bae576040517f08c379a0000000000000000000000000000000000000000000000000000000008152600401610ba590611636565b60405180910390fd5b6000835111610bf2576040517f08c379a0000000000000000000000000000000000000000000000000000000008152600401610be990611c70565b60405180910390fd5b6000825111610c36576040517f08c379a0000000000000000000000000000000000000000000000000000000008152600401610c2d90611cdc565b60405180910390fd5b82600085604051610c479190611573565b90815260200160405180910390206005019081610c6491906119bc565b5081600085604051610c769190611573565b90815260200160405180910390206006019081610c9391906119bc565b507fb314d1ea115ac9be5de053b8ad3d9e1efda7f7c408b7b673c6b09457b08437c9848484604051610cc793929190611cfc565b60405180910390a150505050565b600160009054906101000a900473ffffffffffffffffffffffffffffffffffffffff1681565b600160009054906101000a900473ffffffffffffffffffffffffffffffffffffffff1673ffffffffffffffffffffffffffffffffffffffff163373ffffffffffffffffffffffffffffffffffffffff1614610d8b576040517f08c379a0000000000000000000000000000000000000000000000000000000008152600401610d8290611b61565b60405180910390fd5b816000815111610dd0576040517f08c379a0000000000000000000000000000000000000000000000000000000008152600401610dc790611517565b60405180910390fd5b60008082604051610de19190611573565b90815260200160405180910390206000018054610dfd906115b9565b905011610e3f576040517f08c379a0000000000000000000000000000000000000000000000000000000008152600401610e3690611636565b60405180910390fd5b81600084604051610e509190611573565b908152602001604051809103902060020160006101000a81548160ff02191690836005811115610e8357610e826110e8565b5b02179055507f60f6fd4b9c2c8aa16750ef7c21a97ae8d06b1dba6f78a95dc83f940abd5b61038383604051610eb9929190611d48565b60405180910390a1505050565b6000604051905090565b600080fd5b600080fd5b600080fd5b600080fd5b6000601f19601f8301169050919050565b7f4e487b7100000000000000000000000000000000000000000000000000000000600052604160045260246000fd5b610f2d82610ee4565b810181811067ffffffffffffffff82111715610f4c57610f4b610ef5565b5b80604052505050565b6000610f5f610ec6565b9050610f6b8282610f24565b919050565b600067ffffffffffffffff821115610f8b57610f8a610ef5565b5b610f9482610ee4565b9050602081019050919050565b82818337600083830152505050565b6000610fc3610fbe84610f70565b610f55565b905082815260208101848484011115610fdf57610fde610edf565b5b610fea848285610fa1565b509392505050565b600082601f83011261100757611006610eda565b5b8135611017848260208601610fb0565b91505092915050565b60006020828403121561103657611035610ed0565b5b600082013567ffffffffffffffff81111561105457611053610ed5565b5b61106084828501610ff2565b91505092915050565b600081519050919050565b600082825260208201905092915050565b60005b838110156110a3578082015181840152602081019050611088565b60008484015250505050565b60006110ba82611069565b6110c48185611074565b93506110d4818560208601611085565b6110dd81610ee4565b840191505092915050565b7f4e487b7100000000000000000000000000000000000000000000000000000000600052602160045260246000fd5b60068110611128576111276110e8565b5b50565b600081905061113982611117565b919050565b60006111498261112b565b9050919050565b6111598161113e565b82525050565b600060e0820190508181036000830152611179818a6110af565b9050818103602083015261118d81896110af565b905061119c6040830188611150565b81810360608301526111ae81876110af565b905081810360808301526111c281866110af565b905081810360a08301526111d681856110af565b905081810360c08301526111ea81846110af565b905098975050505050505050565b6000806000806080858703121561121257611211610ed0565b5b600085013567ffffffffffffffff8111156112305761122f610ed5565b5b61123c87828801610ff2565b945050602085013567ffffffffffffffff81111561125d5761125c610ed5565b5b61126987828801610ff2565b935050604085013567ffffffffffffffff81111561128a57611289610ed5565b5b61129687828801610ff2565b925050606085013567ffffffffffffffff8111156112b7576112b6610ed5565b5b6112c387828801610ff2565b91505092959194509250565b600080604083850312156112e6576112e5610ed0565b5b600083013567ffffffffffffffff81111561130457611303610ed5565b5b61131085828601610ff2565b925050602083013567ffffffffffffffff81111561133157611330610ed5565b5b61133d85828601610ff2565b9150509250929050565b6000806000606084860312156113605761135f610ed0565b5b600084013567ffffffffffffffff81111561137e5761137d610ed5565b5b61138a86828701610ff2565b935050602084013567ffffffffffffffff8111156113ab576113aa610ed5565b5b6113b786828701610ff2565b925050604084013567ffffffffffffffff8111156113d8576113d7610ed5565b5b6113e486828701610ff2565b9150509250925092565b600073ffffffffffffffffffffffffffffffffffffffff82169050919050565b6000611419826113ee565b9050919050565b6114298161140e565b82525050565b60006020820190506114446000830184611420565b92915050565b6006811061145757600080fd5b50565b6000813590506114698161144a565b92915050565b6000806040838503121561148657611485610ed0565b5b600083013567ffffffffffffffff8111156114a4576114a3610ed5565b5b6114b085828601610ff2565b92505060206114c18582860161145a565b9150509250929050565b7f436f6d706c61696e742049442063616e6e6f7420626520656d70747900000000600082015250565b6000611501601c83611074565b915061150c826114cb565b602082019050919050565b60006020820190508181036000830152611530816114f4565b9050919050565b600081905092915050565b600061154d82611069565b6115578185611537565b9350611567818560208601611085565b80840191505092915050565b600061157f8284611542565b915081905092915050565b7f4e487b7100000000000000000000000000000000000000000000000000000000600052602260045260246000fd5b600060028204905060018216806115d157607f821691505b6020821081036115e4576115e361158a565b5b50919050565b7f436f6d706c61696e7420646f6573206e6f742065786973740000000000000000600082015250565b6000611620601883611074565b915061162b826115ea565b602082019050919050565b6000602082019050818103600083015261164f81611613565b9050919050565b7f557365722049442063616e6e6f7420626520656d707479000000000000000000600082015250565b600061168c601783611074565b915061169782611656565b602082019050919050565b600060208201905081810360008301526116bb8161167f565b9050919050565b7f4465736372697074696f6e2063616e6e6f7420626520656d7074790000000000600082015250565b60006116f8601b83611074565b9150611703826116c2565b602082019050919050565b60006020820190508181036000830152611727816116eb565b9050919050565b7f506f7374206f666669636520636f64652063616e6e6f7420626520656d707479600082015250565b6000611764602083611074565b915061176f8261172e565b602082019050919050565b6000602082019050818103600083015261179381611757565b9050919050565b7f436f6d706c61696e7420494420616c7265616479206578697374730000000000600082015250565b60006117d0601b83611074565b91506117db8261179a565b602082019050919050565b600060208201905081810360008301526117ff816117c3565b9050919050565b60008190508160005260206000209050919050565b60006020601f8301049050919050565b600082821b905092915050565b6000600883026118687fffffffffffffffffffffffffffffffffffffffffffffffffffffffffffffffff8261182b565b611872868361182b565b95508019841693508086168417925050509392505050565b6000819050919050565b6000819050919050565b60006118b96118b46118af8461188a565b611894565b61188a565b9050919050565b6000819050919050565b6118d38361189e565b6118e76118df826118c0565b848454611838565b825550505050565b600090565b6118fc6118ef565b6119078184846118ca565b505050565b5b8181101561192b576119206000826118f4565b60018101905061190d565b5050565b601f8211156119705761194181611806565b61194a8461181b565b81016020851015611959578190505b61196d6119658561181b565b83018261190c565b50505b505050565b600082821c905092915050565b600061199360001984600802611975565b1980831691505092915050565b60006119ac8383611982565b9150826002028217905092915050565b6119c582611069565b67ffffffffffffffff8111156119de576119dd610ef5565b5b6119e882546115b9565b6119f382828561192f565b600060209050601f831160018114611a265760008415611a14578287015190505b611a1e85826119a0565b865550611a86565b601f198416611a3486611806565b60005b82811015611a5c57848901518255600182019150602085019450602081019050611a37565b86831015611a795784890151611a75601f891682611982565b8355505b6001600288020188555050505b505050505050565b60006080820190508181036000830152611aa881876110af565b90508181036020830152611abc81866110af565b90508181036040830152611ad081856110af565b90508181036060830152611ae481846110af565b905095945050505050565b7f4f6e6c79207468652061646d696e2063616e20706572666f726d20746869732060008201527f616374696f6e0000000000000000000000000000000000000000000000000000602082015250565b6000611b4b602683611074565b9150611b5682611aef565b604082019050919050565b60006020820190508181036000830152611b7a81611b3e565b9050919050565b7f5374616666206e616d652063616e6e6f7420626520656d707479000000000000600082015250565b6000611bb7601a83611074565b9150611bc282611b81565b602082019050919050565b60006020820190508181036000830152611be681611baa565b9050919050565b60006040820190508181036000830152611c0781856110af565b90508181036020830152611c1b81846110af565b90509392505050565b7f466565646261636b20617574686f722063616e6e6f7420626520656d70747900600082015250565b6000611c5a601f83611074565b9150611c6582611c24565b602082019050919050565b60006020820190508181036000830152611c8981611c4d565b9050919050565b7f466565646261636b2063616e6e6f7420626520656d7074790000000000000000600082015250565b6000611cc6601883611074565b9150611cd182611c90565b602082019050919050565b60006020820190508181036000830152611cf581611cb9565b9050919050565b60006060820190508181036000830152611d1681866110af565b90508181036020830152611d2a81856110af565b90508181036040830152611d3e81846110af565b9050949350505050565b60006040820190508181036000830152611d6281856110af565b9050611d716020830184611150565b939250505056fea2646970667358221220f29959c5fd01301f5b8eedcede45aeb7e4981dc52bbe81e435e97d03ed4d25d764736f6c634300081b0033",
  "linkReferences": {},
  "deployedLinkReferences": {}
}